:020000040800F2
:1000000000800120612D0008B12D0008B12D0008ED
:10001000B12D0008B12D0008B12D0008000000002E
:10002000000000000000000000000000B12D0008EA
:10003000B12D000800000000B12D0008CD09000816
:10004000B12D0008B12D0008B12D0008B12D000818
:10005000B12D0008B12D0008B12D0008B12D000808
:10006000B12D0008B12D0008B12D0008B12D0008F8
:10007000B12D0008B12D0008B12D0008B12D0008E8
:10008000B12D0008B12D0008B12D0008B12D0008D8
:10009000B12D0008B12D0008B12D0008B12D0008C8
:1000A000B12D0008B12D0008B12D0008B12D0008B8
:1000B000B12D0008B12D0008B12D0008B12D0008A8
:1000C000B12D0008B12D0008B12D0008B12D000898
:1000D000B12D0008B12D0008B12D0008B12D000888
:1000E000D9090008E5090008B12D0008B12D000864
:1000F000B12D0008B12D0008B12D0008B12D000868
:10010000B12D0008B12D0008B12D0008B12D000857
:10011000B12D0008B12D0008B12D0008B12D000847
:10012000B12D0008B12D0008B12D0008B12D000837
:10013000B12D0008B12D0008B12D0008B12D000827
:10014000B12D0008B12D0008B12D0008B12D000817
:10015000B12D0008B12D0008B12D0008B12D000807
:10016000B12D0008B12D0008B12D0008B12D0008F7
:10017000B12D0008B12D0008B12D000800000000CD
:08018000B12D0008B12D0008AB
:100190000348044B834202D0034B03B11847704716
:1001A0006000002060000020000000000548064BB1
:1001B0001B1AD90F01EBA301491002D0034B03B165
:1001C0001847704760000020600000200000000019
:1001D00010B5064C237843B9FFF7DAFF044B13B18F
:1001E0000448AFF300800123237010BD600000209D
:1001F000000000000837000808B5044B1BB1044993
:100200000448AFF30080BDE80840CFE700000000DD
:100210006400002008370008034613F8012B002A69
:10022000FBD1181A013870470000000000000000E0
:1002300001F0FF01102A2BDB10F0070F08D010F897
:10024000013B013A8B422DD010F0070F42B3F6D19B
:10025000F0B441EA012141EA014122F007047FF0B4
:1002600000070023F0E80256083C85EA010586EA0B
:10027000010685FA47F5A3FA87F586FA47F6A5FA47
:1002800087F68EB9EED1F0BC01F0FF0102F0070253
:1002900032B110F8013B013A83EA010313B1F8D1FE
:1002A0000020704701387047002D06BF35460338DF
:1002B000073815F0010F07D1013015F4807F02BF18
:1002C000013015F4C03F0130F0BC0138704700BF69
:1002D00053B94AB9002908BF00281CBF4FF0FF31AD
:1002E0004FF0FF3000F09CB9ADF1080C6DE904CE81
:1002F00000F006F8DDF804E0DDE9022304B0704701
:100300002DE9F04782B00646DDF828E00846B446FD
:100310000D46002B4ED18A4214466DD9B2FA82F2B4
:1003200042B1C2F12003954026FA03F394401D43E5
:1003300006FA02FC260CA7B2B5FBF6F14FEA1C4305
:1003400006FB115543EA054301FB07F0984209D922
:10035000E31801F1FF3580F00381984240F20081FB
:10036000023923441B1A1FFA8CFCB3FBF6F006FB80
:1003700010334CEA034C00FB07F363450AD914EB36
:100380000C0C00F1FF3580F0ED80634540F2EA800F
:10039000A444023840EA0140ACEB030C0021BEF15A
:1003A000000F04D02CFA02F30022CEE9003202B092
:1003B000BDE8F0878B4209D9BEF1000F01D0CEE92C
:1003C00000610021084602B0BDE8F087B3FA83F16E
:1003D000174600294DD1834202D3B24200F20F8169
:1003E000B6EB070C60EB030301201D46BEF1000FC6
:1003F000DDD0CEE900C5DAE7002A00F098801A4681
:10040000B4FA84F3002B40F0AF800B1B270CA6B28C
:100410000121B3FBF7F54FEA1C4007FB153340EA17
:10042000034306FB05F8984507D9E31805F1FF30AB
:1004300002D2984500F2E8800546A3EB08031FFAB4
:100440008CFCB3FBF7F007FB10334CEA034C06FBC4
:1004500000F3634508D914EB0C0C00F1FF3602D20F
:10046000634500F2CE803046ACEB030C40EA054019
:1004700095E7C1F120058B4022FA05FC4CEA030CFC
:1004800000FA01F426FA05F3E84002FA01F943EA1A
:1004900004084FEA1C4206FA01FAB0FBF2F71FFA11
:1004A0008CF602FB17004FEA184444EA004407FBAD
:1004B00006F0A0420AD91CEB040407F1FF3380F0D8
:1004C0009C80A04240F29980023F6444241A1FFAA3
:1004D00088F3B4FBF2F002FB104443EA044300FB50
:1004E00006F69E4209D91CEB030300F1FF3480F0AD
:1004F00082809E427FD90238634440EA0740A0FBD5
:1005000009749B1BA3423E46A04664D361D0BEF152
:10051000000F0AD0BAEB060263EB080303FA05F5F5
:10052000CA401543CB40CEE9005300213FE7730892
:1005300043EAC1734A08190C41EA02414FEAC67CFA
:100540009BB2B2FBF4F02646A04627461F2243EAA0
:100550000143B1FBF4F1A3EB080341EA004158E782
:100560002946FFE6284615E71A46C3F120019C40BC
:1005700026FA01F320FA01F190400343270C06FA12
:1005800002FCB1FBF7F0A6B207FB1015190C41EA0B
:10059000054100FB06F58D423BD9611801D28D4221
:1005A00020D8491B0138B1FBF7F5019505FB06F88A
:1005B000019D9BB207FB151143EA0143434526D237
:1005C000E31805F1FF31C6D24345C4D2A91E234426
:1005D000C1E7BA459BD2B7EB090664EB0C040138BE
:1005E000A04694E7651B29440238B1FBF7F5019555
:1005F00005FB06F8DCE720467FE71F4666E708466E
:10060000F4E6A44402382FE7023D234415E701999C
:10061000A1E7491BB1FBF7F5019505FB06F8C7E714
:10062000704700BF0FB410B596B018AA52F8041B5B
:10063000019202AC204602F0D3FB2046FFF7ECFD0E
:100640004FF0FF3382B22146034802F060FA16B041
:10065000BDE8104004B07047A000002010B586B07F
:1006600015238DF8043010238DF805300A238DF8FA
:10067000063001238DF807300C4C002201A92046DA
:1006800000F094FB1C238DF8023012238DF801300A
:1006900019238DF8033007238DF8003000226946B6
:1006A000204600F0EBFB06B010BD00BF7C00002030
:1006B00010B58CB0194BDA6C42F00102DA64DA6CD6
:1006C00002F001020092009ADA6C42F00402DA644D
:1006D000DB6C03F004030193019B202307930123A8
:1006E00008930024099407A94FF0904001F0E2FD1F
:1006F0004FF4005302934FF404130393049402A99C
:10070000074801F0D7FD22460F21282001F054FFB1
:10071000282001F061FF0CB010BD00BF00100240A6
:100720000008004810B588B004460DF1040CDFF84D
:1007300024E0BEE80F00ACE80F009EE807008CE85C
:100740000700631E08AA02EB830353F81C0C08B0D1
:1007500010BD00BF2037000810B586B00446184809
:10076000FFF760FF002201A9204600F0BAFC9DF8C7
:1007700006309DF805209DF804101248FFF752FF3F
:10078000012220214FF0904001F0A2FE01224FF4FF
:1007900080714FF0904001F09BFE4FF4FA6000F042
:1007A0002FFD002220214FF0904001F091FE002209
:1007B0004FF480714FF0904001F08AFE06B010BDFA
:1007C0003C37000854370008FEE7000010B596B02B
:1007D000022305934FF480720892102209920F931E
:1007E0001093322814D0502840D1022111911423A3
:1007F00012931591139114910F23009303230193E6
:10080000002302934FF48063039304930C4613E098
:100810000423119319231293022315931393149312
:100820000F23009303230193002302934FF480636B
:100830000393049301231C4605A800F091FDB8B969
:100840002146684601F09CF8A0B901F05DF90A4B19
:10085000A3FB0030800901F0C3FE042001F0D4FEA8
:10086000002211464FF0FF3001F0A6FE16B010BD79
:10087000FFF7AAFFFFF7A8FFD34D621008B50A489B
:100880000A4B0360002343607F228260FF22C26024
:1008900003614FF480128261C36100F029FA00B94C
:1008A00008BDFFF791FF00BF7C000020002800403A
:1008B00008B50948094B03604FF4E1334360002356
:1008C0008360C360036183610823436102F0E7F939
:1008D00000B908BDFFF778FFA000002000440040E9
:1008E00008B500F06BFCFFF7E3FE3220FFF76EFF68
:1008F000FFF7DEFFFFF7C2FF0148FFF793FEFEE7B9
:100900007837000830B58DB001AD2C220021284683
:1009100002F070FA104C4FF48071204600F0F0F8AD
:100920004FF480730B9310238DF8053014238DF84A
:1009300006300A4B06934FF0706308930022294655
:10094000204600F0EFFA20B90548FFF76BFE0DB026
:1009500030BDFFF739FF00BF7C0000200000808021
:100960009C37000870B588B0154C002203A92046BA
:1009700000F0B7FB002202A9204600F0D8FBFFF7E9
:100980006DFE9DF80E309DF80D209DF80C100D4861
:10099000FFF748FE9DF809409DF80A509DF80B307E
:1009A0001E469DF80800FFF7BDFE009033462A461C
:1009B00021460548FFF736FEFFF7A4FF08B070BDDB
:1009C0007C00002054370008B437000808B500F058
:1009D00005FC01F02AFE08BD08B54FF4005001F0F7
:1009E0007DFD08BD08B5024800F0F0F808BD00BF65
:1009F0007C00002008B5032001F0CCFD0B4A536AAF
:100A000043F4E0235362002211466FF00B0001F023
:100A1000D3FD002211466FF00A0001F0CDFD002247
:100A200011466FF0090001F0C7FD08BD00ED00E0C0
:100A300030B589B0194B9A6D42F400329A659A6DBF
:100A400002F400320192019ADA6C42F00102DA6497
:100A5000DB6C03F001030293029B04230393022344
:100A6000049301230593002406940723079303AD01
:100A700029464FF0904001F01DFC082303932946BE
:100A80004FF0904001F016FC262001F0A5FD224613
:100A90002146262001F090FD09B030BD0010024033
:100AA00000B5B5B0042323930123259300232D9390
:100AB00023A800F055FCD0B94FF4003301934FF454
:100AC0008073229301A801F0BDF998B90B4AD2F8BE
:100AD000903043F40043C2F8903000220F212920C7
:100AE00001F06AFD292001F077FD35B000BDFFF768
:100AF0006BFEE1E7FFF768FEE8E700BF0010024089
:100B000038B590F82030012B5DD00446012380F8E1
:100B10002030022380F821300368CA225A62036819
:100B200053225A62B1F5807F21D00268936823F482
:100B3000007393600268936823F40053936000F09D
:100B400059FB05462368DB6813F0020F31D100F032
:100B500051FB431BB3F57A7FF4D92368FF225A6215
:100B6000032084F82100002384F820302AE0026862
:100B7000936823F4807393600268936823F480532E
:100B8000936000F037FB05462368DB6813F0010F24
:100B90000FD100F02FFB401BB0F57A7FF4D923680A
:100BA000FF225A62032084F82100002384F82030B9
:100BB00008E02368FF225A62012384F821300020D4
:100BC00084F8200038BD0220FCE7000010B5044680
:100BD000154B4FF480225A6103689A6812F4805FC3
:100BE00003D0DA6812F4807F0CD123689A6812F47B
:100BF000005F03D0DA6812F4007F0BD1012384F880
:100C0000213010BDDA68D2B262F4C072DA60FFF748
:100C1000A3FDEAE7DA68D2B262F42072DA60204615
:100C200000F0A3FAEAE700BF0004014038B504462B
:100C300003680A4ADA6000F0DDFA05462368DB68DB
:100C400013F0200F07D100F0D5FA401BB0F57A7FE2
:100C5000F4D9032000E0002038BD00BF5FFF03008F
:100C600070B50368DA6812F0400F02D000252846FC
:100C700070BD04464FF0FF32DA6000F0BBFA064662
:100C800000252368DB6813F0400FF0D1032DEED070
:100C900000F0B0FA831BB3F57A7FF2D9032584F80C
:100CA0002150EEE710B50446104BDA6822F08002BE
:100CB000DA609B6813F0200F06D1FFF7B7FF98B1F9
:100CC000032084F821000FE0084A936823F02003F2
:100CD0009360FFF7ABFF10B1032084F82100034AB3
:100CE000936843F02003936010BD00BF00280040CC
:100CF00000284ED038B5044690F8213063B1022365
:100D000084F821302368DA6812F0100F09D000202F
:100D1000012384F8213038BD80F82030FFF7C0FE71
:100D2000EDE7CA225A62236853225A622046FFF72F
:100D300097FFC0B92268936823F4E00323F04003CF
:100D4000936021688A68636820690343A06903434C
:100D500013438B602368E2681A6122681369A168F3
:100D600043EA014313612046FFF79CFF58B922680C
:100D7000D36C23F00303D3642168CB6CE26965690B
:100D80002A431343CB642368FF225A620028C2D14E
:100D9000BEE701207047002302E001330A38C0B2E9
:100DA0000928FAD81B01DBB21843704790F82030AD
:100DB000012B61D070B504460D461646012380F81C
:100DC0002030022380F821300368CA225A62036867
:100DD00053225A62FFF744FF002830D1002E39D148
:100DE00023689B6813F0400F01D10023EB70287833
:100DF000FFF7D1FF03041E466878FFF7CCFF46EAF1
:100E000000231E46A878FFF7C6FF33460343EA785F
:100E100043EA8253226803F07F3323F0FE431360DA
:100E20002268936823F48023936021688B68EA68C2
:100E30002869024313438B602046FFF733FF236882
:100E4000FF225A6210B9012384F82130002384F86C
:100E5000203070BD23689B6813F0400F01D1002340
:100E6000EB702A786B781B0243EA0243AA7813439B
:100E7000EA7843EA8253CDE70220704790F82030A9
:100E8000012B4DD070B504460D46012380F820306B
:100E9000022380F82130F2B1CA784B781B0243EA72
:100EA00002438A7813430A7843EA42352368CA2208
:100EB0005A62236853225A622046FFF7D1FE28B3B4
:100EC0002368FF225A6210B9012384F821300023DD
:100ED00084F8203070BD4B7813F0100F03D003F06E
:100EE000EF030A334B70E878FFF755FF03041E4603
:100EF0006878FFF750FF46EA00231E46A878FFF700
:100F00004AFF30432B7840EA4335CFE7226825F08B
:100F10007F4323F0C00353602046FFF7C3FECFE7B3
:100F200002207047F8B590F82030012B00F0CB80FC
:100F300004460D46012380F82030022380F821303A
:100F4000002A54D103689B6813F0400F00D1CA7087
:100F50002878FFF720FF03041E466878FFF71BFF81
:100F600046EA00231E46A878FFF715FF3043EB78CA
:100F700040EA83531E4695F82400FFF70CFF46EA2B
:100F800000602B6A18436B6903431E466A68EB696D
:100F900013431F462368CA225A62236853225A62A7
:100FA000AB6AB3F5807F3DD02268936823F4007369
:100FB00093602268D368DBB263F42073D36000F0DF
:100FC00019F905462368DA6812F0020F5BD100F0C8
:100FD00011F9401BB0F57A7FF4D92368FF225A62D9
:100FE000032084F82100002384F820306AE003689D
:100FF0009B6813F0400F01D10023CB702A786B78E7
:101000001B0243EA0243AA781343EA7843EA825375
:1010100095F8242043EA02632A6A13436A6913435A
:101020001E46B3E72268936823F4807393602268B6
:10103000D368DBB263F4C073D36000F0DBF805461D
:101040002368DA6812F0010F0FD100F0D3F8401BCB
:10105000B0F57A7FF4D92368FF225A62032084F81E
:101060002100002384F820302CE0DE6123685F64D7
:101070002268936843F4807393602268936843F412
:10108000805393600CE01E6223689F64226893681B
:1010900043F4007393602268936843F400539360B1
:1010A0000A4B1A6842F480221A609A6842F480223D
:1010B0009A602368FF225A62012384F821300020BD
:1010C00084F82000F8BD0220FCE700BF00040140C6
:1010D000030903EB830300F00F0000EB4300C0B2F1
:1010E000704770B503689B6A4B6003681B69C3F364
:1010F0000E038B6003681B68C3F305400870C3F3DD
:1011000006264E7003F07F058D70C3F38053CB70BD
:101110005AB90C46FFF7DCFF20703046FFF7D8FFC6
:1011200060702846FFF7D4FFA070002070BD70B536
:1011300003685B68C3F30740C870C3F304264E70AE
:1011400003F03F058D70C3F342330B705AB90C4660
:10115000FFF7BEFFE0703046FFF7BAFF6070284629
:10116000FFF7B6FFA070002070BD7047104B1B78D2
:101170000BB90120704710B504460E4A10684FF4B1
:101180007A72B2FBF3F3B0FBF3F001F029FA68B91D
:101190000F2C01D901200AE0024621464FF0FF3012
:1011A00001F00AFA044B1C60002000E0012010BD91
:1011B00000000020080000200400002010B50320DB
:1011C00001F0E8F90F20FFF7D1FF18B101231C4609
:1011D000204610BD0446FFF70DFCF9E7034B1B78D2
:1011E000034A11680B441360704700BF00000020E1
:1011F00028010020014B1868704700BF280100201B
:1012000038B50446FFF7F6FF0546B4F1FF3F02D0BC
:10121000044B1B781C44FFF7EDFF401BA042FAD3A0
:1012200038BD00BF0000002030B583B00546204B1C
:101230009B6D13F0805F0BD001F05EF9B0F5007F7D
:1012400017D0802D1FD82DD0702D2DD000211BE060
:10125000174CA36D43F08053A365A36D03F0805337
:101260000193019B01F048F9A36D23F08053A3651E
:10127000E4E7802D03D9A02D03D9022104E0002149
:1012800002E0012100E003210A4A136823F007036A
:101290000B431360136803F007038B4206D1002051
:1012A00003B030BD0221EFE70121EDE70120F7E7B0
:1012B0000010024000200240254A9368D26802F0E4
:1012C000030213F00C0309D00C2B05D0042B3BD0E8
:1012D000082B3BD000200FE0012AF7D11C4A1268EE
:1012E00012F0080F0CD11A4AD2F89420C2F303224C
:1012F000184951F8220013B10C2B06D0002070477A
:10130000134A1268C2F30312F2E7114BDB6803F0D1
:101310000303022B16D0032B00D10F480C49CA68D7
:10132000C2F302120132CB68C3F3062300FB03F3BE
:10133000B3FBF2F3C868C0F3416001304000B3FB77
:10134000F0F070470548E9E70448704702487047E5
:10135000001002402038000800127A000024F40037
:10136000002800F0F382F0B583B00446964B9D68E8
:1013700005F00C05DB6803F003031E46036813F059
:10138000100F5AD0E5B10C2D18D0A369002B00F036
:10139000BB808D4A136843F001031360FFF72AFFF7
:1013A0000746894B1B6813F0020F40F09A80FFF745
:1013B00021FFC01B0228F4D90320D2E2012EE4D180
:1013C000814B1B6813F0020F03D0A369002B00F0C0
:1013D000BF82206A7C4B1B6813F0080F5BD07A4BEE
:1013E0001B6803F0F00398425CD8774B1A6842F010
:1013F00008021A601A6822F0F002216A0A431A6091
:101400005A6822F47F42E16942EA01225A60002DC3
:1014100060D0FFF751FF6C4B9B68C3F303136B4A1B
:10142000D35C03F01F03D840694B1860694B186800
:10143000FFF79CFE002840F09482236813F0010F10
:1014400000F08180082D75D00C2D71D06368B3F544
:10145000803F00F09780B3F5A02F00F099805A4BA1
:101460001A6822F480321A601A6822F480221A6004
:101470006368002B00F09980FFF7BCFE0746524BD3
:101480001B6813F4003F5ED1FFF7B4FEC01B642855
:10149000F5D9032065E24C4BD3F894301B0903F0D7
:1014A000F003A0E7FFF7C0FE002840F05382464B50
:1014B0001A6842F008021A601A6822F0F002216AE3
:1014C0000A431A605A6822F47F42E16942EA012223
:1014D0005A609EE7206AFFF7A7FE002899D00120F6
:1014E0003FE2394B1A6842F008021A601A6822F08B
:1014F000F002216A0A431A605A6822F47F42E169C5
:1015000042EA01225A6098E72F4A136823F0010348
:101510001360FFF76FFE07462B4B1B6813F0020F9B
:101520008BD0FFF767FEC01B0228F5D9032018E215
:10153000032E8BD1244B1B6813F4003F03D0636848
:10154000002B00F00982236813F0020F57D0042DFE
:1015500044D00C2D40D0E368002B76D01A4A136893
:1015600043F480731360FFF745FE0646164B1B6875
:1015700013F4806F60D1FFF73DFE801B0228F5D980
:101580000320EEE1104A136843F4803313606FE7E1
:1015900003F18043A3F53C331A6842F480221A60B9
:1015A0001A6842F480321A6062E7FFF723FE0746AA
:1015B000054B1B6813F4003FC5D0FFF71BFEC01B93
:1015C0006428F5D90320CCE1001002405838000807
:1015D0000800002004000020022EBCD1A44B1B6890
:1015E00013F4806F03D0E368002B00F0B781A04AAA
:1015F000536823F0F853216943EA01635360236879
:1016000013F0080F4CD063699BB3994AD2F8943019
:1016100043F00103C2F89430FFF7ECFD0646944B0B
:10162000D3F8943013F0020F3AD1FFF7E3FD801B9B
:101630000228F4D9032094E18D4A536823F0F8532B
:10164000216943EA01635360D9E7894A136823F4A7
:1016500080731360FFF7CEFD0646854B1B6813F4BD
:10166000806FCCD0FFF7C6FD801B0228F5D9032080
:1016700077E17F4AD2F8943023F00103C2F8943026
:10168000FFF7B8FD06467A4BD3F8943013F0020FFB
:1016900006D0FFF7AFFD801B0228F4D9032060E1DC
:1016A000236813F0040F7CD0714B9B6D13F0805FA7
:1016B00037D16F4B9A6D42F080529A659B6D03F063
:1016C00080530193019B01231F466A4B1B6813F44F
:1016D000807F29D0A368012B3AD0052B40D0644BE2
:1016E000D3F8902022F00102C3F89020D3F8902084
:1016F00022F00402C3F89020A368002B3ED0FFF72D
:1017000079FD06465A4BD3F8903013F0020F47D1BB
:10171000FFF770FD801B41F288339842F2D9032015
:101720001FE100231F46D0E7524A136843F4807339
:101730001360FFF75FFD06464E4B1B6813F4807F76
:10174000C8D1FFF757FD801B0228F5D9032008E117
:10175000474AD2F8903043F00103C2F89030CBE70B
:10176000434BD3F8902042F00402C3F89020D3F802
:10177000902042F00102C3F89020BDE7FFF73AFD48
:1017800006463B4BD3F8903013F0020F08D0FFF71A
:1017900031FD801B41F288339842F2D90320E0E00A
:1017A000EFB9A36A002B00F0DB80022B1DD00C2DBB
:1017B00000F0DD802E4A136823F080731360FFF77A
:1017C00019FD04462A4B1B6813F0007F00F0B78018
:1017D000FFF710FD001B0228F4D90320C1E0244AC2
:1017E000936D23F080539365DBE7214BDB6803F0B7
:1017F0000301E26A91420FD00C2D00F0B4801C4B23
:101800001B6813F0806F40F0B080194B1B6813F019
:10181000805F31D00120A4E003F07002216B013918
:10182000B2EB011FE8D103F4FE42616BB2EB012F72
:10183000E2D103F40031A26B073A18BF01229142B2
:10184000DAD103F4C001E26B5208013AB1EB425F16
:10185000D2D103F0C063226C5208013AB3EB426F5D
:10186000CAD1034B1B6813F0007F4ED0002078E0F4
:1018700000100240007000403E4A136823F080735D
:101880001360FFF7B7FC05463A4B1B6813F0007F67
:1018900006D0FFF7AFFC401B0228F5D9032060E01B
:1018A000344AD36834491940E36A206B013843EA6B
:1018B0000013606B43EA0023E06B4008013843EA01
:1018C0004053206C4008013843EA4063A06B000994
:1018D00043EA40431943D160136843F080731360B7
:1018E000D36843F08073D360FFF784FC0446214B38
:1018F0001B6813F0007F06D1FFF77CFC001B022859
:10190000F5D903202DE000202BE01A4B1A6842F095
:1019100080721A60DA6842F08072DA60FFF76AFC5F
:101920000446144B1B6813F0007F06D1FFF762FCDE
:10193000031B022BF5D9032013E0002011E00D4A10
:10194000D1680E4B0B40D36000200AE001207047A5
:10195000012006E0012004E0012002E0012000E077
:10196000184603B0F0BD0120FBE70120F9E7012094
:10197000F7E700BF001002408C809DF9FCFFEEFEEF
:10198000002800F0AF8070B50D460446594B1B6827
:1019900003F007038B420BD2564A136823F0070368
:1019A0000B431360136803F007038B4240F09C80E5
:1019B000236813F0020F0CD0A2684F4B9B6803F012
:1019C000F0039A4205D94C498B6823F0F0031A437F
:1019D0008A60236813F0010F39D06368032B09D0A4
:1019E000022B26D063BB444A126812F0020F06D1C4
:1019F000012076E0404A126812F0007F76D03E491E
:101A00008A6822F0030213438B60FFF7F3FB06465C
:101A1000394B9B6803F00C036268B3EB820F16D05E
:101A2000FFF7E8FB801B41F288339842F0D903208E
:101A300057E0314A126812F4003FE0D1012050E033
:101A40002D4A126812F4806FD9D1012049E0236831
:101A500013F0020F0CD0A268274B9B6803F0F00331
:101A60009A4205D224498B6823F0F0031A438A6016
:101A7000204B1B6803F00703AB420AD91D4A1368C9
:101A800023F007032B431360136803F00703AB42F3
:101A90002ED1236813F0040F06D0174A936823F45D
:101AA000E063E1680B439360236813F0080F07D0ED
:101AB000114A936823F46053216943EAC103936098
:101AC000FFF7FAFB0C4B9B68C3F303130B4AD35C81
:101AD00003F01F03D8400A4B18600A4B1868FFF741
:101AE00045FB70BD012070470120FAE70120F8E7AF
:101AF0000120F6E70020024000100240583800089C
:101B00000800002004000020014B1868704700BF47
:101B10000800002008B5FFF7F7FF054B9B68C3F3EB
:101B20000223044AD35C03F01F03D84008BD00BF62
:101B3000001002405038000808B5FFF7E5FF054BDC
:101B40009B68C3F3C223044AD35C03F01F03D8404D
:101B500008BD00BF0010024050380008F8B5044628
:101B60000F465F4BDB6813F0030F1BD05C4BDB6849
:101B700003F003030268934203D001231D46284665
:101B8000F8BD002A00F0A580554BDB68C3F30213B3
:101B900001334268934202D001231D46EFE7002340
:101BA0001D461AE00368022B59D0032B5FD0012B8E
:101BB00040F092804A4A126812F0020F64D04848FE
:101BC000C26822F073026168013943EA01131343CA
:101BD000C36000231D46002DD1D1414A136823F074
:101BE00080631360FFF706FB06463D4B1B6813F04E
:101BF000006F06D0FFF7FEFA831B022BF5D90323F3
:101C00001D46002DBBD1002F41D135490B6923F46E
:101C10001F3323F44073A068E2681209520442EAB9
:101C2000002213430B612E4A136843F08063136054
:101C3000FFF7E0FA06462A4B1B6813F0006F06D147
:101C4000FFF7D8FA801B0228F5D903231D46002D83
:101C500095D1234A1369A1690B4313618FE7204A89
:101C6000126812F4806FAAD101231D4687E71C4A2F
:101C7000126812F4003FA2D1194A126812F4802FA0
:101C80009DD101231D467AE701231D46A3E7012FBD
:101C90000FD01348026922F0C06222F4FE42A1680C
:101CA00063695B08013B5B0643EA01231A43026157
:101CB000B9E70B48026922F4C00222F4FE42A1688F
:101CC00023695B08013B5B0543EA01231A43026178
:101CD000A9E701231D4652E701231D464FE700BF38
:101CE00000100240F8B504460F46554BDB6813F070
:101CF000030F1BD0524BDB6803F0030302689342CF
:101D000003D001231D462846F8BD002A00F092802A
:101D10004B4BDB68C3F3021301334268934202D09A
:101D200001231D46EFE700231D4619E00368022B3F
:101D300058D0032B5ED0012B7FD1414A126812F09C
:101D4000020F64D03E48C26822F073026168013914
:101D500043EA01131343C36000231D46002DD2D173
:101D6000374A136823F080531360FFF743FA06469F
:101D7000334B1B6813F0005F06D0FFF73BFA831B61
:101D8000022BF5D903231D46002DBCD1002F41D1D4
:101D90002B494B6923F41F3323F44073A068E26896
:101DA0001209520442EA002213434B61244A136889
:101DB00043F080531360FFF71DFA0646204B1B6863
:101DC00013F0005F06D1FFF715FA801B0228F5D942
:101DD00003231D46002D96D1194A536961690B43AF
:101DE000536190E7164A126812F4806FAAD101235A
:101DF0001D4688E7124A126812F4003FA2D1104A29
:101E0000126812F4802F9DD101231D467BE7012328
:101E10001D46A3E70A48426922F0C06222F4FE424E
:101E2000A16823695B08013B5B0643EA01231A436F
:101E30004261BBE701231D4665E701231D4662E7BA
:101E4000001002402DE9F04182B00446036813F40B
:101E5000006F38D0436EB3F5000F18D00DD84BB3D8
:101E6000B3F5800F05D100212030FFF73BFF064678
:101E700025E001231F461E4628E0B3F5400F02D19E
:101E800000231E460AE001231F461E461EE0644A48
:101E9000D36843F48033D36000231E46604AD2F8EF
:101EA000883023F44003616E0B43C2F8883000236E
:101EB0001F460BE019460430FFF750FE0646002E81
:101EC000ECD0374602E000231F461E46236813F479
:101ED000805F32D0A36EB3F1007F21D00ED82BB338
:101EE000B3F1807F06D1002104F12000FFF7FAFE54
:101EF000064606E001231F461E461EE0B3F1407F62
:101F00000AD1CEB9464AD2F8883023F04073A16E88
:101F10000B43C2F8883010E001231F461E460CE038
:101F20003F4AD36843F48033D360EAE71946201D63
:101F3000FFF714FE0646E4E73746236813F4003F34
:101F400077D0374B9B6D13F0805F52D1344B9A6D35
:101F500042F080529A659B6D03F080530193019B80
:101F6000012398462F4A136843F480731360FFF7E8
:101F700041F905462B4B1B6813F4807F06D1FFF710
:101F800039F9401B0228F5D903231E46002E4BD1F8
:101F900006F1804303F50433D3F8903013F4407313
:101FA00019D0D4F884209A4212D01D4AD2F8903029
:101FB00023F44073D2F8901041F48031C2F89010AD
:101FC000D2F8901021F48031C2F89010C2F890300D
:101FD00013F0010F10D1002E40F02981104AD2F8E1
:101FE000903023F44073D4F884100B43C2F890303F
:101FF0001BE000239846B5E7FFF7FCF80546084BC1
:10200000D3F8903013F0020FE5D1FFF7F3F8401B3F
:1020100041F288339842F2D903231E46DBE700BF22
:10202000001002400070004037464346002B40F04D
:102030000081236813F0010F08D09D4AD2F8883040
:1020400023F00303A16B0B43C2F88830236813F01D
:10205000020F08D0964AD2F8883023F00C03E16BC7
:102060000B43C2F88830236813F0040F08D0904A5D
:10207000D2F8883023F03003216C0B43C2F888304B
:10208000236813F0080F08D0894AD2F8883023F06B
:10209000C003616C0B43C2F88830236813F0100F43
:1020A00008D0834AD2F8883023F44073A16C0B43E4
:1020B000C2F88830236813F0200F08D07C4AD2F889
:1020C000883023F44063E16C0B43C2F88830236806
:1020D00013F4007F08D0764AD2F8883023F44023E6
:1020E000E16D0B43C2F88830236813F4806F08D089
:1020F0006F4AD2F8883023F44013216E0B43C2F8A4
:102100008830236813F0400F08D0694AD2F888302D
:1021100023F44053216D0B43C2F88830236813F039
:10212000800F08D0624AD2F8883023F44043616DB2
:102130000B43C2F88830236813F4807F08D05C4AD0
:10214000D2F8883023F44033A16D0B43C2F88830B5
:10215000236813F4005F0FD0554AD2F8883023F07B
:102160004063E16E0B43C2F88830E36EB3F1006F59
:1021700065D0B3F1806F67D0236813F4002F0FD0C0
:102180004B4AD2F8883023F04063216F0B43C2F8EA
:102190008830236FB3F1006F5ED0B3F1806F60D0F1
:1021A000236813F4802F0FD0414AD2F8883023F0EF
:1021B0004063616F0B43C2F88830636FB3F1006F07
:1021C00057D0B3F1806F59D0236813F4804F0FD0EC
:1021D000374AD2F8883023F04053A16F0B43C2F83E
:1021E0008830A36FB3F1805F50D0B3F1005F55D05A
:1021F000236813F4004F08D02D4AD2F8883023F01A
:102200008043E16F0B43C2F88830236813F4803FAA
:1022100009D0274AD2F8883023F00043D4F8801040
:102220000B43C2F88830384602B0BDE8F08137462B
:10223000FBE61F4A936D23F080539365F9E6D3685C
:1022400043F48013D36097E70121201DFFF786FC3C
:10225000002891D007468FE7D36843F48013D360FA
:102260009EE70121201DFFF779FC002898D0074642
:1022700096E7D36843F48013D360A5E70121201DBE
:10228000FFF76CFC00289FD007469DE70221201D28
:10229000FFF764FC0028ABD00746A9E7022104F150
:1022A0002000FFF71FFD0028A2D00746A0E700BFCF
:1022B0000010024070B582B0002374E085684FEAD8
:1022C000430E032404FA0EF425EA0405CC6804FA4C
:1022D0000EF42C438460446824EA0C044D68C5F372
:1022E000001E0EFA03FE4EEA0404446070E0C46A65
:1022F00024EA0C04C5F3C00E0EFA03FE4EEA0404F1
:10230000C4626AE0DD08083550F8254003F0070C88
:102310004FEA8C0C4FF00F0E0EFA0CFE24EA0E0E54
:102320000C6904FA0CF444EA0E0440F825406FE00E
:10233000062400E0002404FA0EF42C430CF1020CF5
:102340005F4D45F82C405F4CA4686FEA020C24EA0C
:1023500002054E6816F4801F01D042EA0405594C6C
:10236000A560E4680CEA04054E6816F4001F01D06D
:1023700042EA0405534CE56064680CEA04054E68C3
:1023800016F4003F01D042EA04054E4C6560246813
:102390000CEA04054E6816F4803F01D042EA0405B9
:1023A000484A156001330A6832FA03F400F0868067
:1023B0004FF0010C0CFA03FC1CEA0202F2D04C684C
:1023C00004F0030E0EF1FF3EBEF1010F7FF676AF73
:1023D0004D6805F00304032C89D04C6804F0030C0D
:1023E000BCF1030F0DD0C4685D004FF0030C0CFA74
:1023F00005FC24EA0C048E6806FA05FC4CEA040489
:10240000C4604C6804F0030CBCF1020F3FF47AAFD7
:1024100005685C004FF0030C0CFA04FC25EA0C0E76
:102420004D6805F0030C0CFA04FC4CEA0E04046041
:102430004C6814F4403FB5D0234C256E45F001059F
:102440002566246E04F001040194019C4FEA930C6C
:102450000CF102051A4C54F8255003F0030E4FEA14
:102460008E0E0F2404FA0EF425EA0405B0F1904F05
:102470003FF460AF154CA04216D004F58064A04232
:1024800014D004F58064A04212D004F58064A04208
:1024900010D004F58064A0420ED004F58064A04200
:1024A0003FF446AF072446E7012444E7022442E70D
:1024B000032440E704243EE705243CE702B070BD56
:1024C00000000140000401400010024000040048E8
:1024D0000AB18161704781627047000008B5054B01
:1024E0005B69034200D108BD024B5861FEF73AFA1E
:1024F000F9E700BF00040140024B186800F4C06017
:10250000704700BF00700040002807DB00F01F028A
:10251000400901239340024A42F82030704700BF2F
:1025200000E100E0002808DB0901C9B200F16040C9
:1025300000F5614080F80013704700F00F000901BA
:10254000C9B2014B1954704714ED00E000B500F01A
:102550000700A0F1030CBCF1040F07D8C0F1070E6F
:102560000430062806D84FF0000C03E04FF0040EAC
:102570004FF0000C4FF0FF3303FA0EF021EA000198
:1025800001FA0CF103FA0CF322EA030241EA020019
:1025900000BD0000074AD36823F4E0631B041B0C52
:1025A000000200F4E060034343F0BF6343F40033F0
:1025B000D360704700ED00E010B50446054BD868C5
:1025C000C0F30220FFF7C2FF01462046FFF7AAFF33
:1025D00010BD00BF00ED00E008B5FFF795FF08BD96
:1025E0000138B0F1807F0BD24FF0E0235861054AEB
:1025F000F02182F823100020986107221A617047A9
:102600000120704700ED00E0042806D04FF0E022E2
:10261000136923F00403136170474FF0E02213693C
:1026200043F0040313617047704708B5FFF7FCFFE0
:1026300008BD026852E8003F23F4907342E800317D
:102640000029F6D1026802F1080353E8003F23F0A5
:102650000103083242E800310029F3D1036E012B57
:1026600006D02023C0F880300023036683667047BD
:10267000026852E8003F23F0100342E800310029CD
:10268000F6D1EEE710B50446836802691343426948
:102690001343C269134301680868A04A02401A4301
:1026A0000A602268536823F44053E1680B43536087
:1026B000A16922689A4B9A4201D0236A1943936810
:1026C00023F430630B4393602368964A934226D0E9
:1026D000954A934236D0954A934246D0944A9342C3
:1026E00056D0944A934266D08D4A934279D01022B4
:1026F0008B498B4200F0B080E069B0F5004F00F0EC
:10270000DF80022A00F0418140F21C81042A00F09F
:102710003981082A40F01E814FF400401FE102F584
:102720005842D2F8882002F00302022A70D005D85D
:10273000002A6FD0012A6FD10422D9E7032A6DD174
:102740000822D5E702F5E632D2F8882002F00C0222
:10275000082A65D005D8002ACAD0042AC8D0102279
:10276000C6E70C2A5ED10822C2E702F5E432D2F8AD
:10277000882002F03002202A56D005D8002AB7D08F
:10278000102A53D10422B3E7302A51D10822AFE7EF
:1027900002F5E232D2F8882002F0C002802A49D045
:1027A00005D8002AA4D0402A46D10422A0E7C02A96
:1027B00044D108229CE702F5E032D2F8882002F4E6
:1027C0004072B2F5007F3BD006D8002A90D0B2F517
:1027D000807F37D104228BE7B2F5407F34D10822C5
:1027E00086E702F5C832D2F8882002F44062B2F5DA
:1027F000006F2BD007D8002A3FF47AAFB2F5806F74
:1028000026D1042274E7B2F5406F23D108226FE786
:1028100002226DE701226BE7102269E7102267E7C9
:10282000022265E7102263E7022261E710225FE7D8
:1028300010225DE702225BE7102259E7102257E7DA
:10284000022255E7102253E7102251E702224FE7F8
:1028500010224DE710224BE7042A2ED006D862B191
:10286000022A01D134480CE0012087E0082A02D175
:102870004FF4004005E0012080E0FFF74BF900280D
:102880007CD0626802EB4203834200F28080B0EBAE
:10289000023F7ED8010E00025308C0184FF000031B
:1028A00041F10001FDF714FDA0F54072234B9A425F
:1028B00071D82368D860002060E0FEF7FDFCDEE7F9
:1028C000022A3DD005D9042A25D0082A0DD001209E
:1028D00054E032B1012A02D1FFF72EF903E00120C2
:1028E0004CE0FFF717F9002848D06268530803EB63
:1028F0004003B3FBF2F3A3F110014FF6EF729142E4
:102900004BD89AB222F00F02C3F34203134322685A
:10291000D360002032E0FEF7CFFCE4E7F369FFEF7D
:102920000080004000380140004400400048004062
:10293000004C0040005000400024F400FFFC0F0059
:102940001848D2E742B1012A02D1FFF7F5F805E0B5
:10295000012013E0012011E0FFF7DCF870B163689B
:1029600000EB5300B0FBF3F0A0F110024FF6EF7351
:102970009A4214D8236880B2D86000200023A3664E
:10298000E36610BDFEF798FCE8E70648E7E701209C
:10299000F4E70120F2E70120F0E70120EEE7012053
:1029A000ECE700BF0024F400436A13F0080F06D0E0
:1029B0000268536823F40043416B0B435360436A3E
:1029C00013F0010F06D00268536823F40033816AC4
:1029D0000B435360436A13F0020F06D0026853683A
:1029E00023F48033C16A0B435360436A13F0040F2E
:1029F00006D00268536823F48023016B0B435360B5
:102A0000436A13F0100F06D00268936823F48053D2
:102A1000816B0B439360436A13F0200F06D002686A
:102A2000936823F40053C16B0B439360436A13F024
:102A3000400F0AD00268536823F48013016C0B43E3
:102A40005360036CB3F5801F0BD0436A13F0800F03
:102A500006D00268536823F40023816C0B43536053
:102A600070470268536823F4C003416C0B43536002
:102A7000EBE72DE9F04104460D4616469846069FC1
:102A80002368DB6935EA03030CBF4FF0010C4FF0FC
:102A9000000CB44534D1B7F1FF3FF1D0FEF7AAFBEB
:102AA0004346C01AB8422ED87FB323681A6812F082
:102AB000040FE5D0802DE3D0402DE1D0DA6912F08B
:102AC000080F11D1DA6912F4006FD9D04FF4006207
:102AD0001A622046FFF7ADFD2023C4F8843000239E
:102AE00084F8783003200CE008251D622046FFF7AB
:102AF000A0FDC4F88450002384F87830012000E061
:102B00000020BDE8F0810320FBE70320F9E72DE971
:102B1000F04184B01E46C36F202B59D104460D46A8
:102B2000002959D003920AB9012052E00023C0F8CD
:102B300084302123C367FEF75DFB0746039BA4F89F
:102B40005030A4F85230A368B3F5805F02D0002360
:102B5000984617E023694BB30023984612E02023E0
:102B6000E367032035E02268414631F8023B88469E
:102B7000C3F308031385B4F8522092B2013A92B21B
:102B8000A4F85220B4F852309BB293B100963B4661
:102B9000002280212046FFF76CFF0028DFD1002DA6
:102BA000E1D015F8012B23681A85E4E7A8461D46F5
:102BB000E8E700963B46002240212046FFF759FFF8
:102BC00010B92023E36704E02023E367032000E03B
:102BD000022004B0BDE8F0810120FAE730B583B0EF
:102BE00004460023C0F88430FEF704FB0546226843
:102BF000126812F0080F0FD123681B6813F0040F3E
:102C000025D12023E367C4F8803000202066606669
:102C100084F8780003B030BD6FF07E430093034624
:102C200000224FF400112046FFF723FF0028E3D0D5
:102C3000226852E8003F23F0800342E80031002977
:102C4000F6D12023E36784F878100320E2E76FF0E1
:102C50007E4300932B4600224FF480012046FFF76D
:102C600008FF0028CDD0226852E8003F23F490737B
:102C700042E800310029F6D1226802F1080353E846
:102C8000003F23F00103083242E800310029F3D16C
:102C90002023C4F8803084F878100320BAE768B3A2
:102CA00010B50446C36F03B32423E3672268136897
:102CB00023F001031360636AE3B92046FFF7E2FCE7
:102CC000012811D02268536823F49043536022688E
:102CD000936823F02A0393602268136843F001038A
:102CE00013602046FFF77AFF10BD80F87830FDF7BB
:102CF0009FFED9E72046FFF757FEDEE70120704729
:102D0000034AD2F8883043F47003C2F88830704721
:102D100000ED00E008B503460D4A0E490E48006874
:102D200040B10D4800680344521A934208D80A4A39
:102D3000136008BD0848DFF824C0C0F800C0F0E701
:102D400000F060F80C2303604FF0FF30F1E700BFA4
:102D500000800120000400002C01002078020020E7
:102D6000DFF834D0FFF7CCFF0C480D490D4A0023A3
:102D700002E0D458C4500433C4188C42F9D30A4A30
:102D80000A4C002301E013600432A242FBD300F09E
:102D90003FF8FDF7A5FDFEE70080012000000020C0
:102DA00060000020B8380008600000207802002091
:102DB000FEE7000010B59AB00024009104916FF076
:102DC000004105910291054903916946199400F06B
:102DD0009BF9009B1C701AB010BD00BF0802FFFFDA
:102DE00013460A46014602480068FFF7E3BF00BFEA
:102DF0000C00002002440346934200D1704703F8C0
:102E0000011BF9E7014B1868704700BF0C00002058
:102E100070B50D4B0D4C00261D1BB6EBA50F09D14F
:102E200000F072FC0A4C0B4B00261D1BB6EBA50FE5
:102E300005D170BD54F8043B98470136EDE754F8CE
:102E4000043B98470136F1E7A8380008A838000885
:102E5000A8380008AC3800087047704737B500291B
:102E600044D051F8043C0190002BA1F10404B8BFF8
:102E7000E41800F0DDF81E4A0198136833B9636066
:102E8000146003B0BDE8304000F0D8B8A34208D9C0
:102E9000256861198B4201BF19685B684919216077
:102EA000EDE71A465B680BB1A342FAD911685518D1
:102EB000A5420BD1246821445418A3421160E0D1EB
:102EC0001C685B6853600C441460DAE702D90C2379
:102ED0000360D6E7256861198B4204BF19685B68F7
:102EE000636004BF491921605460CAE703B030BD74
:102EF0007402002070B50F4C0E462168054611B9CA
:102F000000F0AEFB20603146284600F0A9FB431CD0
:102F100003D14FF0FF34204670BDC41C24F00304DD
:102F2000A042F8D0211A284600F09AFB0130F2D1D5
:102F3000EFE700BF700200202DE9F843CD1C25F01B
:102F4000030508350C2D38BF0C25002D064601DB86
:102F5000A94204D90C2333600020BDE8F883334F25
:102F600000F066F83B681C463CBB29463046FFF73C
:102F7000C1FF431C044656D13C68A046B8F1000F7F
:102F800040D1002C49D023684146304604EB030968
:102F900000F066FB814540D121686D1A2946304614
:102FA000FFF7A8FF013038D023682B4423603B682B
:102FB0005A685ABBC7F800800EE02268521B1ED424
:102FC0000B2A16D96119A342256018BF596063689E
:102FD00008BF396062514B60304600F02FF804F1B1
:102FE0000B00231D20F00700C21A1CBF1B1AA350A0
:102FF000B3E76268A3420CBF3A605A60ECE723462D
:103000006468B1E74446D8F80480B7E71A465B68BD
:10301000A342FBD100235360DEE70C23336030462C
:1030200000F00CF898E70560D6E700BF74020020B6
:103030000148FFF711BF00BF6C0200200148FFF7F5
:103040000CBF00BF6C0200202DE9F0478E681F46C0
:10305000BE4282460C469046334653D8B1F90C0026
:1030600010F4906F2BD065692368096905EB45055D
:10307000A3EB010905EBD5757B1C6D104B44AB42EE
:103080002A4684BF1D462A46430527D51146504689
:10309000FFF752FF064658B321694A4600F0F0FA9E
:1030A000A38923F4906343F08003A38126616561C3
:1030B0004E44A5EB09052660A5603E463B461F46EB
:1030C00020683A46414600F0B1FAA3689B1BA36012
:1030D00023683B4423600020BDE8F087504600F0A1
:1030E000DDFA06460028E1D121695046FFF7B6FE19
:1030F0000C23CAF80030A38943F04003A3814FF0AA
:10310000FF30E9E73E46DBE72DE9F04F1D468B89AE
:103110001B069DB080460E46144611D50B697BB93F
:103120004021FFF709FF3060306138B90C23C8F83F
:1031300000304FF0FF301DB0BDE8F08F40237361C9
:103140000023099320238DF82930DFF88C91039513
:1031500030238DF82A304FF0010A23461A781D4695
:103160001AB1252A03F10103F8D1B5EB040B0BD0FA
:103170005B46224631464046FFF766FF013000F0CD
:103180009C80099A5A4409922B78002B00F0958074
:1031900000234FF0FF32CDE9052301350493079357
:1031A0008DF853301A932C464B4814F8011B052216
:1031B000FDF73EF8049BB0B9D80644BF20228DF835
:1031C0005320190744BF2B228DF853202A782A2A2E
:1031D00011D0079A00210A202B78303B092B2C466E
:1031E00048D971B914E0A0EB09000AFA00F01843BD
:1031F00004902546D7E7039A111D12680391002A0F
:1032000001DB079204E0524243F002030792049369
:1032100023782E2B0AD163782A2B30D1039B1A1DD9
:103220001B68039243EAE373023405932B4D217824
:1032300003222846FCF7FCFF30B1049B401B4022D0
:103240008240134301340493217825488DF82810D7
:103250000622FCF7EDFF002835D0224B13BB039B61
:10326000073323F0070308330393099B3B440134DE
:10327000099372E7013500FB02320121ACE700231C
:103280000593611C18460A250A78303A092A0C462B
:1032900003D9002BCAD00590C8E7013105FB0020F7
:1032A0000123F1E703AB009332460F4B04A94046DC
:1032B000AFF30080421C0746D7D1B3895B063FF5C8
:1032C00038AF099837E703AB00933246064B04A9A1
:1032D000404600F081F8EDE7683800086E380008D5
:1032E0007238000800000000493000082DE9F0475E
:1032F000914698468A680B69089E9342B8BF134668
:10330000C9F8003091F8432007460C4612B101334A
:10331000C9F800302368990642BFD9F8003002335B
:10332000C9F80030256815F0060507D104F1190A1F
:10333000E368D9F800209B1AAB4229DC94F84330AB
:103340002268003B18BF012392062ED404F14302E9
:1033500041463846B047013021D02368A168226930
:1033600003F00603042B01BFE568D9F80030ED1A1D
:1033700025EAE57518BF00258B1A2B449142C8BF7A
:103380001D464FF000091A344D451AD1002008E0BF
:103390000123524641463846B047013003D14FF031
:1033A000FF30BDE8F0870135C2E7E1185A1C302034
:1033B00081F84300224494F8451082F84310023308
:1033C000C4E70123224641463846B0470130E6D0E3
:1033D00009F10109D8E700002DE9F04398460B7E7A
:1033E00085B0782B174606460C9A0C4609D8622BF6
:1033F00001F1430108D8002B00F0DC80582B00F0CD
:10340000BD8004F1420539E0A3F163001528F8D826
:1034100001A555F820F000BF71340008853400087C
:1034200003340008033400080334000803340008A0
:10343000853400080334000803340008033400080E
:103440000334000895350008B134000843350008FE
:103450000334000803340008BD35000803340008B5
:10346000B134000803340008033400084B35000869
:103470001368191D1B68116004F1420584F842307D
:103480000123A8E013682568181D1060280601D5DF
:103490001B6803E06A06FBD5B3F90030002B03DAA2
:1034A0002D225B4284F84320DFF878C10A2213E022
:1034B0002568106815F0800F50F8043B02D16D06A6
:1034C00048BF9BB21060227EDFF858C16F2A5DD1E1
:1034D0000822002084F843006568A560002D05DB04
:1034E00020681D4320F00400206051D00D46B3FB3E
:1034F000F2F002FB103E9A421CF80EE005F801EDD6
:103500000346F4D9082A0BD12368DA0708D52369C2
:1035100062689A42DEBF302305F8013C05F1FF35B1
:10352000491B2161CDF800803B4603AA2146304665
:10353000FFF7DCFE013053D14FF0FF3005B0BDE89E
:10354000F083236843F020032360DFF8DCC0782396
:1035500084F845302068156810F0800F55F8043B5A
:1035600003D110F0400F18BF9BB21560C50744BFD0
:1035700040F02000206023B11022AAE7DFF8A4C0A9
:10358000E6E7226822F020022260F5E70A22A0E79F
:103590000D46B7E71368D4F800C060691D1D1560BB
:1035A0001CF0800F1B6801D0186003E01CF0400F76
:1035B000FAD01880002323610D46B3E71368191D64
:1035C00011601D68626800212846FCF731FE08B1D1
:1035D000401B606063682361002384F84330A1E7E7
:1035E00023692A4639463046C0470130A4D02368B3
:1035F0009B0714D4E068039B9842B8BF18469DE728
:10360000012304F1190239463046C047013093D0F6
:103610000135E36803995B1AAB42F1DCEAE7002568
:10362000F7E700BF793800088A380008884210B5EB
:1036300001EB020402D98442234607D8431EA1426B
:1036400007D011F8012B03F8012FF8E7024482425A
:1036500000D110BD13F8011D02F8011DF7E70000AD
:1036600038B5064C0023054608462360FFF752FB99
:10367000431C02D1236803B12B6038BD68020020CF
:103680000A44914200F1FF3300D1704710B511F8A0
:10369000014B03F8014F9142F9D110BD2DE9F041E2
:1036A000074615460C4621B9BDE8F0411146FFF723
:1036B00043BC2AB9FFF7D2FB2C462046BDE8F08177
:1036C00000F01AF88542064602D8B5EB500FF4D840
:1036D00029463846FFF730FC804608B94446ECE7F7
:1036E000B5422A46214628BF3246FFF7C9FF214688
:1036F0003846FFF7B3FBF1E751F8043C181F002BE5
:10370000BCBF0B58C0187047F8B500BFF8BC08BC68
:103710009E467047F8B500BFF8BC08BC9E4670478F
:10372000DC370008E4370008EC370008F8370008F9
:10373000043800080C38000818380008416C617221
:103740006D20547269676765726564200D0A000018
:103750000000000043757272656E742054696D65D7
:10376000206973203A20253032643A253032643A99
:10377000253032640D0A0000546869732069732093
:1037800052544320416C61726D20546573742070F3
:10379000726F6772616D0D0A00000000416C61720A
:1037A0006D20536574205375636365737366756C20
:1037B0000D0A000043757272656E74204461746571
:1037C000206973203A20253032642D2532642D255E
:1037D000326420203C25733E200D0A004D6F6E643C
:1037E0006179000054756573446179005765646EB2
:1037F000657364617900000054687572736461795F
:1038000000000000467269646179000053617475BC
:10381000726461790000000053756E646179000084
:10382000A0860100400D0300801A060000350C0040
:1038300040420F0080841E0000093D0000127A0003
:103840000024F40000366E010048E801006CDC0240
:10385000000000000102030400000000000000005E
:103860000102030406070809232D302B2000686C91
:103870004C00656667454647003031323334353693
:1038800037383941424344454600303132333435CC
:1038900036373839616263646566000000000000F5
:0838A00078C9FF7F0100000060
:0838A800F90100080000000016
:0838B000D10100080000000036
:1038B800010000001000000000093D001000002079
:1038C80000000000300100209801002000020020C4
:1038D80000000000000000000000000000000000E0
:1038E80000000000000000000000000000000000D0
:1038F80000000000000000000000000000000000C0
:1039080000000000000000000000000000000000AF
:0400000508002D6161
:00000001FF
